:020000040800F2
:100000000845002079020008231E0008611C000832
:10001000211E0008F91900086928000800000000E6
:1000200000000000000000000000000001200008A7
:10003000311A000800000000A91E00081521000860
:10004000930200089302000893020008930200083C
:10005000930200089302000893020008930200082C
:10006000930200089302000893020008930200081C
:10007000930200089302000893020008930200080C
:1000800093020008930200089302000893020008FC
:1000900093020008930200089302000893020008EC
:1000A00093020008930200089302000893020008DC
:1000B00079210008F5210008F721000893020008C3
:1000C00093020008930200089302000893020008BC
:1000D0009302000829250008292600089302000839
:1000E000930200089302000893020008930200089C
:1000F000930200089302000893020008930200088C
:10010000930200089302000893020008930200087B
:10011000930200089302000893020008930200086B
:10012000930200089302000893020008930200085B
:1001300000F002F800F090F80AA090E8000C824469
:100140008344AAF10107DA4501D100F085F8AFF246
:10015000090EBAE80F0013F0010F18BFFB1A43F0A5
:1001600001031847D02F0000F02F0000103A24BFE1
:1001700078C878C1FAD8520724BF30C830C144BF0C
:1001800004680C607047000000230024002500264E
:10019000103A28BF78C1FBD8520728BF30C148BFEA
:1001A0000B6070476E2900F04983702900F0A1842C
:1001B000662902F05187652902F04E87672902F00F
:1001C0004B876129AFF3008003681B0A28BF41F009
:1001D0008001692900F0AC80642900F0A9807529AC
:1001E00000F0A6806F2900F02F84782900F06D843C
:1001F000E92900F0C983E42900F0C683F52900F05D
:10020000C383EF2900F02C84F82900F06C84036884
:10021000DB0928BF41F08001632900F04A8373297C
:1002200000F04F83E32900F0CB86F32900F0D0865D
:10023000002070471FB500F01DFF040000200021C2
:1002400002F0F4FE401C60600020002102F0D8FEA5
:10025000E0601FBD10B510BD00F0DEFE1146FFF7D7
:10026000E9FF02F055FC00F0B7FF03B4FFF7F2FF1F
:1002700003BC00F0FFFF0000094880470948004721
:10028000FEE7FEE7FEE7FEE7FEE7FEE7FEE7FEE746
:10029000FEE7FEE704480549054A064B70470000A3
:1002A0001921000831010008083F002008450020FE
:1002B00008410020084100201CB50C46064B7B4439
:1002C00069460090204600F0D2FA044600206946B4
:1002D00000F0E0FA20461CBDD305000070B50C46C6
:1002E0000546012A05D02878800600D5EA69002352
:1002F00002E0012305E05B1C934202D2E05C00288F
:10030000F9D1A869E618C01AA861286A18442862B9
:10031000284600F001FA04E0D5E9012114F8010BA8
:100320009047B442F8D3284600F00CFA70BD0000A4
:100330002DE9F0410646002410687529314616A5BE
:1003400010D000F010FA002802DA404213A507E0AE
:1003500031688A0701D512A502E0490704D511A525
:10036000012401E000F008FA00210A2206F1240726
:1003700009E0B0FBF2FCB0FBF2F302FB1C003030F2
:1003800078541846491C0028F3D123462A463046A3
:10039000BDE8F04100F0F9B9000000002D000000B8
:1003A0002B000000200000002DE9F05F8946044684
:1003B0004FF0000ADFF874B1FB44C0F820A02046DB
:1003C000E1688847002874D0252806D0D4E90121A7
:1003D0009047206A401C2062F1E700265F462046D5
:1003E000E16888472028054607DB312D05D27819BA
:1003F00010F8200C08B10643F1E7B00701D526F04C
:100400000406C4F81CA00027C4F818A02A2D09D09F
:10041000284602F075FB38B304EB8708303DC8F876
:10042000185019E059F8041B204604EB870291612B
:10043000E1688847012F054618D1E069002820DAD5
:1004400026F020061DE0D8F8180000EB800005EB30
:1004500040003038C8F818002046E1688847054653
:1004600002F04EFB0028EED1012F0AD02E2D08D12C
:100470002046E16888477F1C0546022F46F020068B
:10048000C4DBA069002803DA404246F00106A061FF
:10049000F00701D026F010066C2D0BD0682D09D086
:1004A0004C2D39D06A2D35D0742D35D07A2D33D0DE
:1004B00016E038E0E1682F4620468847B8420546F6
:1004C00009D16C2F26D04FF48060E16806432046A6
:1004D0008847054604E06C2F1AD04FF4807006431D
:1004E0000DB3A5F14100192802D8203546F4006665
:1004F0004A462946204626604E46FFF753FE80B105
:1005000001280BD0F61D26F0070000F1080956E778
:100510004020E4E78020D8E70020D6E706F1040970
:100520004DE7284652E7206ABDE8F09FA02C000066
:1005300030B505460B462A4613F8014B12F8010B5D
:1005400008B1A042F8D01CB1002802D06D1CF1E720
:10055000284630BD10B5431C02E010F8011B71B1F4
:100560008107FAD14FF0013202C88C1A8C4314EA89
:10057000C211F9D0C01A0A0603D0C01E10BDC01A9D
:1005800010BD0A0401D0801E10BD0902FCD0401E1F
:1005900010BD032A40F2308010F0030C00F01580EB
:1005A00011F8013BBCF1020F624498BF11F801CB76
:1005B00000F8013B38BF11F8013BA2F1040298BFDB
:1005C00000F801CB38BF00F8013B11F0030300F045
:1005D0002580083AC0F0088051F8043B083A51F8E9
:1005E00004CBA0E80810F5E7121D5CBF51F8043BEE
:1005F00040F8043BAFF30080D20724BF11F8013B61
:1006000011F801CB48BF11F8012B24BF00F8013BC2
:1006100000F801CB48BF00F8012B704710B5203A15
:10062000C0F00B80B1E81850203AA0E81850B1E8AB
:100630001850A0E81850BFF4F5AF5FEA027C24BF61
:10064000B1E81850A0E8185044BF18C918C0BDE858
:1006500010405FEA827C24BF51F8043B40F8043B21
:1006600008BF7047D20728BF31F8023B48BF11F8D6
:10067000012B28BF20F8023B48BF00F8012B704730
:100680004FF000020429C0F0128010F0030C00F0BB
:100690001B80CCF1040CBCF1020F18BF00F8012B39
:1006A000A8BF20F8022BA1EB0C0100F00DB85FEA07
:1006B000C17C24BF00F8012B00F8012B48BF00F8D3
:1006C000012B70474FF0000200B513469446964642
:1006D000203922BFA0E80C50A0E80C50B1F1200155
:1006E000BFF4F7AF090728BFA0E80C5048BF0CC003
:1006F0005DF804EB890028BF40F8042B08BF704761
:1007000048BF20F8022B11F0804F18BF00F8012BD2
:10071000704770477047704770B504468569006838
:10072000C10601D5302600E02026C00707D070BDE5
:10073000D4E9012130469047206A401C20626D1E9A
:10074000F6D570BD70B5044685690078C00707D13D
:1007500070BDD4E9012120209047206A401C20620E
:100760006D1EF6D570BD09684A0501D540B27047C7
:10077000C905FCD500B2704709684A0501D5C0B269
:100780007047C905FCD580B270472DE9F0470D468A
:1007900099469246044600F124080168880604D56B
:1007A000E06921F01001216000E00120A84201DD94
:1007B000471B00E00027A1697A1902EB0900081A1B
:1007C000A0612078C00602D42046FFF7A5FF0026CE
:1007D00008E0D4E901211AF806009047206A401C7D
:1007E000761C20624E45F4DB2078C0060AD52046F0
:1007F000FFF792FF06E0D4E9012130209047206AFC
:10080000401C2062381EA7F10107F4DC07E0D4E9A0
:10081000012118F805009047206A401C2062281E1C
:10082000A5F10105F3DC2046FFF78CFF20780006D8
:1008300002D50220BDE8F0870120FBE711680268BD
:10084000006A530501D508700AE0D30501D5088078
:1008500006E0130603D5C217C1E9000200E00860F4
:100860000120704701694A1C02610878704700B591
:100870008FB0CDE901310021059105497944CDE9D9
:10088000031011466846FFF78FFD0FB000BD000052
:10089000E5FFFFFF0A6802F8010B0A60704710B518
:1008A000436913B1AFF3008001E0FFF717FD0120AA
:1008B00010BD127800F124010A7000224A70012252
:1008C000EDE711684FF0FF32E9E700002DE9FF5F27
:1008D00015468A460446DFF8AC80F8440027D8E97C
:1008E00000103E46CDE9001010E03AF816106A46B6
:1008F00002A800F071FB411C07D02178890603D5BE
:10090000E269391891420DD80744761C2078800698
:1009100002D5E069B84205DDAE42E6DB3AF81600E2
:100920000028E2D1A069C01BA0612046FFF7F4FEB9
:10093000D8E90010CDE90010002017E03AF81810AF
:100940006A4602A800F048FBB0F1FF3F81460BD099
:1009500000250DF1080B05E0D4E901211BF8050085
:1009600090476D1C4D45F7D308F10100B042804619
:10097000E4DB206A384420622046FFF7E3FEBDE84E
:10098000FF9F0000922700002DE9F0418046D21D14
:1009900022F007020025D2E90002F52915A614D09D
:1009A000011E72F1000106DA0023D0EB030063EBB5
:1009B000020211A608E0D8F800108B0701D50FA697
:1009C00002E0490701D50EA601251146002408F1D1
:1009D000240704E000F098F830323A55641C50EADD
:1009E0000102F7D12B46324621464046BDE8F04190
:1009F000FFF7CBBE000000002D0000002B00000020
:100A00002000000030B4002100F1240408E002F0CE
:100A10000705D208303542EA4372DB086554491CA9
:100A200052EA0305F3D10468002310A2250708D574
:100A300004F020040C4304D0C46901230CA2641EFA
:100A4000C46130BCFFF7A1BE10B504462146106852
:100A5000FFF792FE02462046BDE810400023D1E792
:100A6000D21D22F00701D1E90023CBE700000000EE
:100A700030000000F0B40D460188090502D5214C74
:100A80007C4402E01F4C7C440E34002100F124061B
:100A900008E002F00F071209E75D42EA03721B0942
:100AA0007754491C52EA0307F3D102780023120756
:100AB00004D5702D06D009B1022311342246F0BCB2
:100AC000FFF763BE01231034F8E770B504460D4606
:100AD00021461068FFF750FE024629462046BDE831
:100AE00070400023C6E7D21D22F00703D3E900239C
:100AF000C0E70368126843F0200303600823C36162
:100B00000023B7E7F425000030B5B0F10A024FEA40
:100B1000900E71F100034EEA817EB0EB0E0061EBA6
:100B200091014FEA101E4EEA017E10EB0E0041EBE0
:100B300011114FEA102E4EEA016E10EB0E0041EB40
:100B400011214FEA104E4EEA014E10EB0E0041EB20
:100B50001141401841F100014FEAD00040EA4170D4
:100B60004FEAD10110EB80054FEA810444EA90740A
:100B700044EB01046D1944EB0404521BA3414FF0F4
:100B8000000348BF0A3200D530BD401C41F10001CE
:100B900030BD70472DE9FF4F0C461E464FF0FF3722
:100BA0008BB0D2E90001DDF860800A908A46C1F37B
:100BB0000A5505B93D46002108464FF00000BAF13C
:100BC000000F00F4400005DA00EB80004FF4400114
:100BD00001EA50004FEA9059B9F1010F00DDB94622
:100BE0000A9850EA4A000ED044F61050A5F2FF359C
:100BF00045432F14B8F1000F1ED07542291E1EDD8B
:100C0000C9F100021CE0B8F1010F4FF0000001D063
:100C1000302103E0F24305E02154401CB042FBDBED
:100C200030460022002121540B99C1F80880C1E907
:100C300000200FB0BDE8F08FBD1B6D1CDEE74A46FB
:100C400000DA694206A800F059FA06AB93E80700FB
:100C500003AB83E8070050460A9900F012FB8DE8C9
:100C60000700A0F500501F3800900398002D09DD03
:100C700042F21F014A46084403A90390684600F067
:100C800071FD08E0A0F500504A461F3803A9039003
:100C9000684600F07BFD8DE807000004000C03D0DF
:100CA0004FF0FF30410800E01046B8F1000F03D0CC
:100CB0000022009215461EE0751E05D4FFF724FFA2
:100CC000303262556D1EF9D5B3460122084302D079
:100CD00000227F1C04E02078302801D100227F1EF2
:100CE000002A099786D01DE0112D07DAFFF70CFFC7
:100CF000303262556D1C50EA0102F5D1084302D032
:100D00000098C8B10EE00021681E05E0235C625C1B
:100D100063542254401E491C8142F7DBAB46A81B9A
:100D2000401E0990002004F80B000B98099AC0F8A7
:100D30000880C0E9002B7CE711264FF0000859E736
:100D40002DE9F04F88460446D21D22F0070191B0EC
:100D5000D1E90001CDE90A0101F0BEFE02460B987F
:100D6000C00F01D02D2007E02068810701D52B207E
:100D700002E0202101EAC000032A099001D0072ADD
:100D800005DB03464146204600F078F90BE1207868
:100D9000800601D5E06900E00620B8F1650F8146C4
:100DA00006D0B8F1660F18D0B8F1670F70D131E0F6
:100DB0000020B9F1110F009001DB112301E009F1CE
:100DC00001030AAA01A90CA8FFF7E4FEDDE90C70F3
:100DD000002609F10105834647E001204B460090BB
:100DE0004FF000470AAA01A90CA8FFF7D3FEDDE9DE
:100DF0000DB00C995D46002610B909F101000D18DF
:100E0000B9EB050003D4C0F1FF3609F10105A5EBEC
:100E100009002BE0B9F1010F01DA4FF001090020C0
:100E2000B9F1110F0090484601DD112300E003469F
:100E30000AAA01A90CA8FFF7ADFEDDE90C704D462A
:100E400000268346207800070AD4AB4500DA5D46C9
:100E500001A8012D04DD411911F8011C302907D02A
:100E60004F4502DA17F1040F04DA012082460FE041
:100E70006D1EEEE7002F02DCED1B3E4403E0781C04
:100E8000A84200DD7D1CB81B00F1010A4FF00047AD
:100E90002078000703D4AA4501DB4FF0FF3A002178
:100EA000B7F1004F0DF143088DF8431024D0022014
:100EB0002B23002F01DA7F422D230A21021EA0F1ED
:100EC000010000DC5FB197FBF1FC97FBF1F201FB45
:100ED0001C7C17460CF1300C08F801CDEEE7A8F1A8
:100EE000010003702188090501D5452100E0652135
:100EF000A0F1010800F8011C09980FA9A1EB08074F
:100F0000FF1D00B10120411901EBEA70A1693844CD
:100F1000081A401EA0612078C00602D42046FFF7C0
:100F2000FBFB099828B1D4E901219047206A401CB5
:100F300020622078C00622D52046FFF7EDFB1EE098
:100F4000002E04DBB34502DD01A8805D00E0302007
:100F5000D4E901219047206A401C2062761CAAF146
:100F600001005FEA000A0AD100F084F8C068016855
:100F7000405CD4E901219047206A401C2062281E71
:100F8000A5F10105DCDC07E0D4E9012118F8010B2B
:100F90009047206A401C2062381EA7F10107F3DC4D
:100FA0002046FFF7CFFB032011B043E610B543699D
:100FB00013B1AFF3008001E0FFF788FC012010BD02
:100FC000128800F1240182840022C2840122EDE70C
:100FD00011684FF0FF32E9E770B516460C4605463A
:100FE00000F040F8036893F80101012806D0FF2CB7
:100FF0000FD8185D68B101202C7070BDD3F80701BF
:101000003246214603F2071303442846BDE87040E8
:1010100018474FF0FF3070BD754600F0E7F8AE4658
:1010200005006946534620F00700854618B020B5F4
:10103000FFF730F9BDE820404FF000064FF0000701
:101040004FF000084FF0000B21F00701AC46ACE870
:10105000C009ACE8C009ACE8C009ACE8C0098D46DD
:101060007047000010B500F005F8001D10BD00BF6E
:10107000BD1F000000487047C83E00202DE9F04128
:101080001F46044603260168072A01F4006004DBBA
:1010900008B116A505E016A503E008B115A500E006
:1010A00015A521F010002060A069C01EA0610FB13D
:1010B000401EA0612046FFF72FFB4FB1D4E901216C
:1010C00038469047206A401C2062C01C206206E01F
:1010D000206AFAE7D4E9012115F8010B9047761E42
:1010E000F8D22046FFF72EFBBDE8F0814E414E00BE
:1010F0006E616E00494E4600696E66002DE9F0474C
:10110000814616468AB0334878440DC88DE80D00F4
:1011100030487844801C03AC0DC884E80D0041F6CB
:101120009B300844372190FBF1F290FBF1F5A5F1DB
:10113000800501FB12041B3C02D56442012000E043
:101140000020DFF890A080460027FA44AAF1BE0AEA
:101150000DE0E00709D03246684607EB47010AEB8D
:10116000810100F013FB8DE8070064107F1C002C48
:10117000EFD1184F7F44AC3F18E0E80714D007EBDD
:1011800004100DF1180A90E80E008AE80E00C068FD
:10119000F04201D198190890324606A903A800F040
:1011A000F5FA03AB83E807006D10641C002DE4D151
:1011B00032466946B8F1000F03A802D000F0D2FA17
:1011C00001E000F0E3FAC9E90001C9F808200AB01B
:1011D000BDE8F0871020000010B50446AFF3008092
:1011E0002046BDE81040FFF740B8000000487047B7
:1011F000A83E00204FF0013C50F8042B51F8043B6E
:101200009A4221D1A2EB0C03934313EACC1317D1DA
:1012100050F8042B51F8043B9A4215D1A2EB0C0371
:10122000934313EACC130BD150F8042B51F8043B31
:101230009A4209D1A2EB0C03934313EACC13DBD0FF
:101240004FF00000704700BFD01A01BAB1FA81F127
:1012500001F0180122FA01F0CB40C1F12001DBB20C
:10126000C0B2C01A2CFA01F3D11A914311EAC3118A
:10127000E6D1704701491820ABBEFEE72600020008
:1012800070475FEA400C08BF91F0000F4FEA8C23D3
:101290004FEAC12243EA51514FEA1C5018BF00F5F2
:1012A000F0404FEA300018BF41F000415FEA6C5C4B
:1012B00000F02980BCF1FF3F08BF40F0804070473C
:1012C000130C06BF12044FF0100C4FF0000C130E5D
:1012D00004BF12020CF1080C130F04BF12010CF131
:1012E000040C930F04BF92000CF1020CD30F04BF47
:1012F00052000CF1010C11464FF00002A0F11F004A
:10130000A0EB0C00704711F0004F08BF704731F0A0
:1013100000413FF4D5AF0B0C06BF09044FF0100C91
:101320004FF0000C0B0E04BF09020CF1080C0B0F60
:1013300004BF09010CF1040C8B0F04BF89000CF1F0
:10134000020CCB0F04BF49000CF1010CCCF12003BF
:10135000A0EB0C0022FA03F302FA0CF241EA0301BB
:1013600000F10100704720F07F4C80EA030023F079
:101370007F47ACEB070303F57C5300F0004003F11B
:10138000FF032DE980494FEA154B09B44FEA144396
:1013900025EA0B4E24EA03480FF2042606EB132736
:1013A00049083E785FEA320203FB0667C7F500078B
:1013B00007FB06F64FEA54374FEAD64606F1020617
:1013C00007FB066CCCF1005C4FEA1C472CEA074C8B
:1013D00007FB06F40CFB06F504EB15464FEA9616E0
:1013E00034BF00204FF000404FEAD13706FB07FC26
:1013F0004FEA1C4C0CFB0BF7D21B03FB0CF761EB09
:1014000007010CFB0EF7B0EB074072EB17420CFB29
:1014100008F734BFA2EB0742B2EB074261EB17417A
:101420004FEA0C444FEA910706FB07FC4FEA1C4CBD
:101430000CFB0BF7B0EBC74072EB573203FB0CF71A
:1014400034BFA2EBC742B2EBC74261EB57310CFB92
:101450000EF7B0EBC70072EB57720CFB08F734BF06
:10146000A2EBC702B2EBC70261EB5771039F4FEAD1
:10147000816141EA921104EBCC044FEAD1374FEA83
:10148000826206FB07FC42EA90124FEA80604FEA54
:101490001C4C0CFB0BF7D21B03FB0CF761EB070199
:1014A0000CFB0EF7B0EB074072EB17420CFB08F792
:1014B00034BFA2EB0742B2EB074261EB17414FEAA0
:1014C0008C554FEA910704EB9C2406FB07FC4FEA7E
:1014D0001C4C0CFB0BF7B0EBC74072EB573203FB15
:1014E0000CF734BFA2EBC742B2EBC74261EB5731F6
:1014F0000CFB0EF7B0EBC70072EB57720CFB08F752
:1015000034BFA2EBC702B2EBC70261EB577115EB18
:101510004C254FEA816141EA92114FEA82624FEA1B
:10152000D13742EA901206FB07FC44F100044FEA6F
:1015300080604FEA1C4C0CFB0BF7D21B03FB0CF733
:1015400061EB07010CFB0EF7B0EB074072EB1742A3
:101550000CFB08F734BFA2EB0742B2EB074261EB8A
:10156000174115EB1C154FEA813141EA92414FEAD0
:10157000823242EA90424FEA80304FEA0C7644F1E0
:10158000000448EA03434EEA0B484FF0000EB2EB6A
:10159000080C71EB030724BF624639464EEB0E0E72
:1015A0004FF0000B0018524149414BEB0B0BB2EBD3
:1015B000080C71EB03077BF1000B24BF6246394630
:1015C0004EEB0E0E4FF0000B0018524149414BEB11
:1015D0000B0BB2EB080C71EB03077BF1000B24BF84
:1015E000624639464EEB0E0E51EA020718BF46F02E
:1015F000010616EB0E7655F1000254F1000103D5F9
:10160000BDE88901BDE80088BDE88901BDE8004862
:10161000B619524141EB0101A3F1010370478080EB
:101620007F7E7D7C7B7A797877767675747372713C
:1016300071706F6E6E6D6C6C6B6A6A6968686766F4
:1016400066656464636362616160605F5F5E5E5D86
:101650005D5C5C5B5B5A5A595958585757565655FA
:1016600055555454535352525251515050504F4F5C
:101670004F4E4E4D4D4D4C4C4C4B4B4B4A4A4A49AC
:1016800049494848484747474746464645454544EF
:101690004444444343434342424242414141002B7C
:1016A00026D4770021D01CB54FEA370703B44FF09A
:1016B00010004FF010014FF000000FBCBDE81040CB
:1016C0000BF1010BBBF1010F08BF5FEA170722BF47
:1016D00012F1010211F101014FF0004143F1000349
:1016E00000F0004043EA00007047F9D35708DAE7FA
:1016F00046EA064613F1400F4FEA16461FDD13F186
:10170000200FDFBF16430A46002120335B42C8D0BA
:10171000C3F1200746EA064602FA07F74FEA1646E3
:1017200046EA0706C3F1200722FA03F201FA07F797
:1017300021FA03F14FF0000342EA0702B1E746EA5B
:10174000020646EA06464FEA164646EA0106BCBFCE
:1017500046EA0646360C4FF000034FF000024FF009
:1017600000019EE72DE9C048934630B491E8380067
:1017700007C831EA400C48BF34EA430C03D5FFF7F1
:10178000F2FDFFF78CFFF0BCBDE800882DE9C048F2
:10179000934630B491E8380007C810F0804F08BF76
:1017A00013F0804F03D100F005F8FFF778FFF0BC8D
:1017B000BDE8008820F07F4780EA030023F07F4CDB
:1017C00007EB0C03A3F57C5300F00040A3F1FE03EC
:1017D00092F0000F00F0B38095F0000F00F07780DA
:1017E0002DE901494FEA11404FEA144621EA004829
:1017F00000FB06FC24EA064708FB06F607FB08F890
:1018000000FB07F718EB06484CEB164C4FEA124B5F
:1018100018EB07484FEA15464CEB174022EA0B4EEF
:101820000BFB06FC25EA06470EFB06F607FB0EFE41
:101830000BFB07F71EEB064E4CEB164C4FF0000669
:101840001EEB074E4CEB174B18EB0B0840F100005A
:1018500018EB0E0B58EB000840F100008F1A4FF008
:1018600000013CBFC943661B14BFB5EB040C00214B
:101870003CBFC943F61B4FEA17444EEA8E0E27EAD7
:1018800004454FEA1C4704FB07622CEA074C05FBA2
:1018900007F70CFB05F604FB0CFC16EB074642EBC6
:1018A000174216EB0C4642EB1C421BEB060658EBAC
:1018B0000202414146EA9E0601D5BDE80189B619FA
:1018C000524141EB0101A3F10103BDE801894FEA57
:1018D00014454FEA114724EA054621EA074C05FB67
:1018E00007F406FB07F70CFB06F105FB0CFC11EBFC
:1018F000074144EB17444FEA124711EB0C4144EB0C
:101900001C4422EA074C05FB07F206FB07F70CFB19
:1019100006F605FB0CFC16EB074642EB174216EBEE
:101920000C4642EB1C456A1854F1000148BF704751
:10193000B619524141EB0101A3F10103704795F043
:10194000000F37D04FEA11424FEA144721EA02460E
:1019500024EA074C02FB07F106FB07F70CFB06F431
:1019600002FB0CFC14EB074441EB17414FEA15470F
:1019700014EB0C4441EB1C4125EA074C02FB07F534
:1019800006FB07F70CFB06F602FB0CFC16EB074602
:1019900045EB174516EB0C4645EB1C42121951F16D
:1019A000000148BF7047B619524141EB0101A3F154
:1019B000010370474FEA14454FEA114724EA0546F0
:1019C00021EA074C05FB07F106FB07F70CFB06F2C3
:1019D0004FF0000605FB0CFC12EB074241EB1741F0
:1019E00012EB0C4251EB1C4148BF7047921841EB7F
:1019F0000101A3F1010370477047000070B5044670
:101A00000D462A46214607480068801CFEF7C1FDA6
:101A10000448006804490968884202D10348014922
:101A2000086070BD340000203C000020A82A00207F
:101A3000704710B56FF0040000F058FB10BD0000B7
:101A400010B50146B1F5E16F22D201EBC1034FF4AD
:101A50007A7463434FF0E02463610023A36123465B
:101A60001B6943F00103236100BF4FF0E0231869B5
:101A700000F001031BB100F48033002BF5D04FF0D0
:101A8000E0231B6923F001034FF0E02423614FE0C2
:101A900000221FE0274B4FF0E02463610023A36185
:101AA00023461B6943F00103236100BF4FF0E0238D
:101AB000186900F001031BB100F48033002BF5D04E
:101AC0004FF0E0231B6923F001034FF0E024236172
:101AD000531CDAB24FF4E163B1FBF3F39342D9D86C
:101AE0004FF4E163B1FBF3F403FB141303EBC30303
:101AF0004FF47A7463434FF0E02463610023A361E1
:101B000023461B6943F00103236100BF4FF0E0232C
:101B1000186900F001031BB100F48033002BF5D0ED
:101B20004FF0E0231B6923F001034FF0E024236111
:101B300010BD00004031F7002DE9F04102460025BC
:101B40000026002000230024002791F803C00CF099
:101B50000F0591F803C00CF0100CBCF1000F03D07E
:101B600091F802C04CEA050591F800C0BCF1000FE5
:101B700031D0146800202BE04FF0010C0CFA00F378
:101B8000B1F800C00CEA03069E4220D183004FF05A
:101B90000F0C0CFA03F7BC4305FA03FC4CEA0404EF
:101BA00091F803C0BCF1280F06D14FF0010C0CFADC
:101BB00000FCC2F814C00AE091F803C0BCF1480F61
:101BC00005D14FF0010C0CFA00FCC2F810C0401C0B
:101BD0000828D1D31460B1F800C0BCF1FF0F34DD88
:101BE000546800202EE000F1080C4FF0010808FABC
:101BF0000CF3B1F800C00CEA03069E4221D1830029
:101C00004FF00F0C0CFA03F7BC4305FA03FC4CEA47
:101C1000040491F803C0BCF1280F05D100F1080CB1
:101C200008FA0CF8C2F8148091F803C0BCF1480F10
:101C300007D100F1080C4FF0010808FA0CF8C2F8BF
:101C40001080401C0828CED35460BDE8F08141616B
:101C50007047016170470AB1016100E0416170475E
:101C60007047000008B501210C2000F03FF9A320C7
:101C7000ADF8000010208DF8030003208DF802005D
:101C800069461448FFF758FF02211248FFF7DFFFAB
:101C900020211048FFF7DBFF40210E48FFF7D7FF58
:101CA00080210C48FFF7D3FF0320ADF8000010207F
:101CB0008DF8030003208DF8020069460648FFF7FF
:101CC0003BFF02210448FFF7C4FF01210248FFF750
:101CD000C0FF08BD00080140000C01400E480F493C
:101CE0000860084600680E4908600E480E49086002
:101CF0000E480F490860084600680E4908600E4803
:101D00000E49086000200E4908700E4908700E49FF
:101D100008700E4908707047A80A00201C000020B7
:101D200020000020A818002024000020A82A00205D
:101D30003400002038000020A83800203C0000209B
:101D40005D0000205F0000205E0000205C0000209D
:101D50002DE9F04FADF5057D06467178307801EB41
:101D600000208490B01C0090002005460746804665
:101D7000839001240120819000BF08F101083819E7
:101D8000054439198498401A8490012401208190D7
:101D9000002784980028F0D141461AA001F0E2F80B
:101DA00000200546074600BF012081904FF0000B40
:101DB00021E0601C41190098415C6219805C01EBD4
:101DC000002000F10209A7EB090A28194844829073
:101DD000009A82981118524601A8FEF7DAFB514684
:101DE00001A8FFF70BFE381905440124012081905A
:101DF00000270BF1010BC345DBDB0DF5057DBDE8CD
:101E0000F08F0000B1BEB4CEBDD3CAD5C1CB25641E
:101E1000B8F6CDC6CBCDCAFDBEDD0D0A0000000070
:101E20007047704770B5002100230F22C47804B3B7
:101E3000154C246804F4E064C4F5E064210AC1F19F
:101E40000403CA40447804FA03F18478144021431F
:101E500009010E4C0678A155047804F01F050124F1
:101E6000AC4005786D11AD0005F1E025C5F80041E5
:101E700009E0047804F01F050124AC40044D067805
:101E8000761145F8264070BD0CED00E000E400E05E
:101E900080E100E002490143024A116070470000FE
:101EA0000000FA050CED00E07047000029B1064A79
:101EB000D2690243044BDA6104E0034AD2698243E7
:101EC000014BDA61704700000010024029B1064A58
:101ED00012690243044B1A6104E0034A1269824307
:101EE000014B1A61704700000010024029B1064AF8
:101EF00092690243044B9A6104E0034A9269824367
:101F0000014B9A61704700000010024029B1064A57
:101F1000D2680243044BDA6004E0034AD268824389
:101F2000014BDA60704700000010024030B500211C
:101F30000022002400232D4D6D6805F00C0121B115
:101F4000042905D0082923D105E0294D056022E0A8
:101F5000274D05601FE0254D6D6805F47012234D77
:101F60006D6805F48034022505EB92421CB9214DC1
:101F7000554305600BE01D4D6D6805F400351DB13E
:101F80001C4D5543056002E0194D5543056002E0C4
:101F9000174D056000BF00BF144D6D6805F0F001DE
:101FA0000909154D6B5C0568DD4045600F4D6D6896
:101FB00005F4E061090A104D6B5C4568DD40856001
:101FC0000A4D6D6805F46051C90A0B4D6B5C45689C
:101FD000DD40C560054D6D6805F44041890B074D36
:101FE0006B5CC568B5FBF3F5056130BD00100240C0
:101FF00000127A0000093D006000002070000020FF
:10200000704710B500F002F810BD00000CB50020BC
:10201000019000903348006840F4803031490860F6
:1020200000BF3048006800F4003000900198401C68
:102030000190009818B90198B0F5A06FF1D1294826
:10204000006800F4003010B10120009001E0002091
:1020500000900098012843D12348006840F0100008
:10206000214908600846006820F00300086008461F
:10207000006840F0020008601A484068194948604A
:102080000846406848600846406840F48060486000
:102090000846406820F47C1048600846406840F4D8
:1020A000E81048600846006840F08070086000BF93
:1020B0000C48006800F000700028F9D0094840681A
:1020C00020F00300074948600846406840F00200DD
:1020D000486000BF0348406800F00C000828F9D1B0
:1020E0000CBD00000010024000200240042808D16E
:1020F0004FF0E021096941F004014FF0E022116145
:1021000007E04FF0E021096921F004014FF0E022DF
:10211000116170477047000010B51348006840F027
:1021200001001149086008464068104908400E49FE
:102130004860084600680E4908400B490860084698
:10214000006820F4802008600846406820F4FE0003
:1021500048604FF41F008860FFF753FF4FF00060A6
:102160000449086010BD0000001002400000FFF8A4
:10217000FFFFF6FE08ED00E0704700001FB54FF4CA
:10218000A060FFF787FE01210220FFF78FFE1848AD
:1021900000F07AF84EF65F20ADF8080048F69F4050
:1021A000ADF804000020ADF80600ADF80A0001A962
:1021B0000F4800F067F901210D4800F055F80122A1
:1021C00011460B4800F054F90121094800F04FF87E
:1021D0001D208DF8000002208DF8010001208DF8EF
:1021E00002008DF803006846FFF71CFE1FBD0000CB
:1021F00000040040704770477FB505460C464FF419
:10220000A060FFF747FE01210420FFF74FFEADF865
:102210000850ADF804400020ADF80600ADF80A0003
:1022200001A9104800F02EF901210E4800F01CF819
:10223000012211460B4800F01BF90021094800F06B
:1022400016F81E208DF8000001208DF801000020F6
:102250008DF8020001208DF803006846FFF7E2FDCB
:102260007FBD000000080040CA430282704721B1D0
:10227000028842F00102028004E002884FF6FE73F9
:102280001A4002807047000010B504466848844236
:1022900008D10121C014FFF739FE0021E014FFF737
:1022A00035FEC4E0B4F1804F08D101210846FFF7A4
:1022B0000DFE00210120FFF709FEB8E05D488442D1
:1022C00008D101210220FFF701FE00210220FFF7C3
:1022D000FDFDACE05848844208D101210420FFF7FD
:1022E000F5FD00210420FFF7F1FDA0E053488442F2
:1022F00008D101210820FFF7E9FD00210820FFF7A0
:10230000E5FD94E04E48844208D101211020FFF7FA
:10231000DDFD00211020FFF7D9FD88E04948844207
:1023200008D101212020FFF7D1FD00212020FFF757
:10233000CDFD7CE04448844208D101214014FFF7E0
:10234000E5FD00216014FFF7E1FD70E03F488442A5
:1023500009D10121C804FFF7D9FD00214FF4002065
:10236000FFF7D4FD63E03A48844209D10121080512
:10237000FFF7CCFD00214FF48010FFF7C7FD56E0BA
:102380003448844209D101214805FFF7BFFD0021EF
:102390004FF40010FFF7BAFD49E02F48844208D1FE
:1023A00001214020FFF792FD00214020FFF78EFD24
:1023B0003DE02A48844208D101218020FFF786FDB4
:1023C00000218020FFF782FD31E02548844208D1BA
:1023D00001218015FFF77AFD0021A015FFF776FD9A
:1023E00025E02048844209D101210804FFF78EFD31
:1023F00000214FF48030FFF789FD18E01A4884422D
:1024000009D101214804FFF781FD00214FF400307C
:10241000FFF77CFD0BE01548844208D101218804B8
:10242000FFF774FD00214FF48020FFF76FFD10BD12
:10243000002C01400004004000080040000C004057
:10244000001000400014004000340140004C0140E6
:10245000005001400054014000180040001C0040A2
:10246000002000400040014000440140004801407D
:102470001AB183890B43838102E083898B43838173
:1024800070470000002202881D4B98420ED01D4B61
:1024900098420BD0B0F1804F08D01B4B984205D02A
:1024A0001A4B984202D01A4B984204D14FF68F73C0
:1024B0001A404B881A43174B984207D0164B984244
:1024C00004D04FF6FF431A40CB881A4302808B8812
:1024D00083850B8803850A4B98420BD0094B9842A1
:1024E00008D00E4B984205D00D4B984202D00D4BB0
:1024F000984201D10B7A0386012383827047000042
:10250000002C01400034014000040040000800405D
:10251000000C00400010004000140040004001404A
:10252000004401400048014010B539480088401C73
:102530003749088040F22551364800F0D9F8002884
:1025400064D03448001D0088C1B233480288008836
:10255000401C314B188031488154007B312819D1FF
:1025600000202E49087301202D49087001212D48B3
:10257000FFF76DFB4FF47A70FFF762FA4FF47A7051
:10258000FFF75EFA4FF47A70FFF75AFA01212548F7
:10259000FFF75FFB2148007B332819D100201F493A
:1025A000087302201E49087001211E48FFF74FFBE7
:1025B0004FF47A70FFF744FA4FF47A70FFF740FA5D
:1025C0004FF47A70FFF73CFA01211648FFF741FB00
:1025D0001248007B362819D10020104908730320C7
:1025E0000F49087001210F48FFF731FB4FF47A7053
:1025F000FFF726FA4FF47A70FFF722FA4FF47A7059
:10260000FFF71EFA01210748FFF723FB10BD00006A
:1026100010000020003801400C000020780200204B
:102620000800002000080140704701F40072B2F574
:10263000007F00D100BFCA430280704721B1828968
:1026400042F40052828104E082894DF6FF731A4001
:102650008281704710B504462048844209D1012187
:102660008803FFF753FC00214FF48040FFF74EFC36
:1026700032E01B48844209D101214804FFF726FCBF
:1026800000214FF40030FFF721FC25E0154884427B
:1026900009D101218804FFF719FC00214FF48020A3
:1026A000FFF714FC18E01048844209D10121C80446
:1026B000FFF70CFC00214FF40020FFF707FC0BE0B4
:1026C0000A48844208D101210805FFF7FFFB0021D9
:1026D0004FF48010FFF7FAFB10BD000000380140F6
:1026E0000044004000480040004C004000500040C2
:1026F00070B50246002400230025002040F66A162B
:10270000B14200D100BFC1F3421501F01F03012601
:1027100006FA03F3012D02D19689334006E0022D1B
:1027200002D1168A334001E0968A33400C1201260A
:1027300006FA04F41688344013B10CB1012000E00D
:10274000002070BDF0B503460024002600250020BF
:1027500040F66A17B94200D100BF1846C1F34214CF
:1027600001F01F06012707FA06F5012C01D10C30F4
:1027700004E0022C01D1103000E014301AB10768D7
:102780002F43076002E00768AF430760F0BD000019
:102790002DE9F04786B005460E460024A24600BF4C
:1027A000A1460027B08900B100BF2F462C8A4CF605
:1027B000FF700440F08804432C82AC894EF6F3107D
:1027C0000440B08831890843718908430443AC81CF
:1027D000AC8A4FF6FF400440B0890443AC8201A8A4
:1027E000FFF7A4FB1F48874202D1DDF810A001E0EB
:1027F000DDF80CA0A88900F4004040B10AEBCA0043
:1028000000EB0A1031684900B0FBF1F807E00AEB71
:10281000CA0000EB0A1031688900B0FBF1F86420AF
:10282000B8FBF0F004012009642101FB1089A8899C
:1028300000F4004040B1322000EBC900B0FBF1F0E1
:1028400000F00700044308E0322000EB0910642187
:10285000B0FBF1F000F00F0004432C8106B0BDE89E
:10286000F0870000003801407047000010B586B0C6
:1028700004464FF4A060FFF70DFB01218803FFF72A
:1028800035FB01210420FFF731FB4FF40070ADF858
:10289000140003208DF8160018208DF8170005A9E4
:1028A0001E48FFF749F94FF48060ADF8140004208A
:1028B0008DF8170005A91948FFF73EF9019400208B
:1028C000ADF80800ADF80A00ADF80C00ADF8100046
:1028D0000C20ADF80E0001A91148FFF759FF202187
:1028E0000F48FFF7A2FE012240F225510C48FFF7E6
:1028F00029FF25208DF8000000208DF801008DF8BB
:10290000020001208DF803006846FFF78BFA0121D1
:102910000348FFF793FE06B010BD00000008014019
:102920000038014010B586B004464FF4A060FFF7B0
:10293000B1FA01214804FFF7B9FA01210420FFF799
:10294000D5FA2448FFF786FE0420ADF814000320D2
:102950008DF8160018208DF8170005A91E48FFF7FE
:10296000EBF80820ADF8140004208DF8170005A935
:102970001948FFF7E1F801940020ADF80800ADF820
:102980000A00ADF80C00ADF810000C20ADF80E00F8
:1029900001A91048FFF7FCFE20210E48FFF745FE75
:1029A000012240F225510B48FFF7CCFE26208DF87E
:1029B000000000208DF801008DF8020001208DF844
:1029C00003006846FFF72EFA01210248FFF736FEA2
:1029D00006B010BD004400400008014010B508A03A
:1029E00000F0C0FA322000F025F820B108A000F075
:1029F000B9FA012010BD0CA000F0B4FA0020F9E7EC
:102A0000D7BCB1B8B8B4CEBBC4A3BFE90D0A0000AF
:102A1000B8B4CEBBCAA7B0DCA3ACD7BCB1B8D6D8CB
:102A2000C6F40D0A00000000B8B4CEBBB3C9B9A605
:102A30000D0A000010B50446002210211348FFF7CC
:102A40000AF94FF4FA70FEF7FBFF012210210F483C
:102A5000FFF701F90CE06420FEF7F2FF0CA10E482D
:102A6000FDF766FD00B107E021460CA000F07AFA00
:102A7000201EA4F10104EED100BF09A000F072FAFB
:102A8000002C01DC012010BD0020FCE70008014003
:102A90007265616479000000A802002025642000AE
:102AA0000D0A000008B501210420FFF71FFA1020CD
:102AB000ADF8000003208DF8020010208DF803000F
:102AC00069460448FFF738F8012210210148FFF752
:102AD000C2F808BD00080140490050EAC12018BFF3
:102AE00004204A0D18BF40F0010040F2FF72B2EB23
:102AF000515F08BF40F00200012808BF0520704761
:102B000030380A2801D201207047002070470000A9
:102B1000FFF7A8F8FEF78DFF4FF41650FFF7A6FE5B
:102B20004FF4E130FFF7FEFE4FF4E1514FF49670A1
:102B3000FFF762FBFFF7B6FFFFF7D0F8FFF792F859
:102B40000BE186480078012871D1854800688549E5
:102B50000968884221D082480068807810280CD00B
:102B60007F4800688078822803D17F480078012858
:102B700003D07E48007801280FD179480068817819
:102B80007BA000F0EFF97648006800F019FA74486D
:102B9000006800F50070724908607948006879495A
:102BA0000968884273D078A000F0DCF974480068A6
:102BB000807820283CD172480068407906282ED2BF
:102BC000DFE800F0030A11181F2672A000F0CAF90E
:102BD00001206549087029E073A000F0C3F90020C6
:102BE0005E49087022E07BA000F0BCF900205B4940
:102BF00008701BE083A000F0B5F900205749087069
:102C000014E08AA000F0AEF90020544908700DE0ED
:102C100091A000F0A7F900205049087006E096A0A6
:102C200000F0A0F900204D49087000BF46E074E0B4
:102C3000534800688078902819D1514800688079FD
:102C400010B101280BD100E000BF94A000F08AF978
:102C500001204649087000209349087006E093A0BF
:102C600000F080F900203D49087000BF26E044488C
:102C700000688078D02815D192A000F073F98A48B6
:102C80000078012804D100208749087016E01BE075
:102C900085480078012811DD002083490870FFF77E
:102CA0006DFA0BE0364800688078302806D189A09C
:102CB00000F058F932480068FFF74AF830480068D9
:102CC00000F500702E490860874800688749096848
:102CD000884242D084480168891C85A000F042F9EE
:102CE00086A181480068801CFDF722FC18B10121F3
:102CF0008848FEF7ACFF88A17B480068801CFDF780
:102D000017FC18B101218348FEF7A3FF764800683D
:102D100000F50070744908601FE085A000F022F9FA
:102D200000218848FFF7A3FA0020874908604FF484
:102D300080618648FDF7A4FCFFF750FE68B984A0C7
:102D400000F010F901200549087000207E49086054
:102D50004FF480617D48FDF793FCF2E65D000020B2
:102D60002C000020280000205E0000205F000020D2
:102D7000B7A2CBCDCAFDBEDD3A307825780D0A006A
:102D8000200000201C000020BDD3CAD5B5BDCAFD5F
:102D9000BEDD3A00434F4E4E454354B1A8CEC4B3B6
:102DA000C9B9A60D0A000000C1ACBDD3D2D1BEDCAA
:102DB000BEF8A3ACB2BBD6A7B3D6B5C4D0ADD2E9EA
:102DC000B0E6B1BEA3ACD7BCB1B8D6D8C6F40D0A34
:102DD00000000000C1ACBDD3D2D1BEDCBEF8A3ACB4
:102DE000B2BBBACFB8F1B5C4BFCDBBA7B6CBB1EAC1
:102DF000CAB6B7FBA3ACD7BCB1B8D6D8C6F40D0AD7
:102E000000000000C1ACBDD3D2D1BEDCBEF8A3AC83
:102E1000B7FECEF1B6CBB2BBBFC9D3C3A3ACD7BC50
:102E2000B1B8D6D8C6F40D0A00000000C1ACBDD3BD
:102E3000D2D1BEDCBEF8A3ACCEDED0A7B5C4D3C31E
:102E4000BBA7C3FBBBF2C3DCC2EBA3ACD7BCB1B81E
:102E5000D6D8C6F40D0A0000C1ACBDD3D2D1BEDCB9
:102E6000BEF8A3ACCEB4CADAC8A8A3ACD7BCB1B87C
:102E7000D6D8C6F40D0A0000C1ACBDD3D2D1BEDC99
:102E8000BEF8A3ACCEB4D6AAD7B4CCACA3ACD7BC56
:102E9000B1B8D6D8C6F40D0A00000000B6A9D4C453
:102EA000B3C9B9A60D0A00005C000020B6A9D4C4BD
:102EB000CAA7B0DCA3ACD7BCB1B8D6D8C6F40D0A4B
:102EC0000000000050494E47B1A8CEC4BBD8B8B4EA
:102ED0000D0A0000B7FECEF1C6F7B5C8BCB630CDBE
:102EE000C6CBCD0D0A0000003800002034000020C1
:102EF000C3FCC1EE3A25730D0A0000002270617216
:102F0000616D73223A7B226B616973756F223A316E
:102F10007D0000000008014022706172616D732223
:102F20003A7B226775616E73756F223A317D0000BE
:102F3000D0E8D2AAC1ACBDD3B7FECEF1C6F70D0A18
:102F4000000000000008004018000020A802002037
:102F5000BDA8C1A2544350C1ACBDD3B3C9B9A60DDD
:102F60000A0000000FB438B505A800901248009A76
:102F70000499FDF7A1F9002000900F48FDF7EAFA47
:102F8000054600BF0D48008800F040000028F9D039
:102F900000240CE00848005D0849091D088000BFB6
:102FA0000648008800F040000028F9D0641CAC42BC
:102FB000F0D338BC5DF814FB7801002000380140E4
:102FC00000BF0E4A128802F04002002AF9D0012107
:102FD0000CE04A1C825C094B1B1D1A8000BF074A8B
:102FE000128802F04002002AF9D0491C4378027886
:102FF00003EB02228A42ECDA7047000000440040F2
:1030000010B500290AD00878002807D00548784470
:10301000FEF7F0F8002801D0002010BD02487844E7
:1030200010BD0000460100003E01000010B500295F
:103030000AD00878002807D005487844FEF7DAF867
:10304000002801D0002010BD0248784410BD0000C7
:10305000360100002E010000FDF772BE04000008DA
:10306000000000000000000200010000100000004D
:1030700000000000000000003031323334353637B4
:1030800038394142434445464030580030313233AC
:1030900034353637383961626364656640307800AC
:1030A00002400000000000A00000000005400000F9
:1030B000000000C8000000000C4000000000409C20
:1030C00000000000194000000020BCBE000000000D
:1030D00034400000BFC91B8E00000004B540000052
:1030E000504BCFD06607E2CF010000006C410000DA
:1030F0003E8251AADFEEA73401000000D942000051
:10310000DCB5A0E23A301F97FFFFFFFFB445000097
:10311000FD25A0C8E9A3C14FFFFFFFFFFF3F00004F
:103120000000008000000000FF3F00000000008061
:103130000000000080320008000000207400000041
:103140006C010008F4320008740000209444000070
:10315000880100081C00000043000000F8FFFFFF8A
:103160000C0000000E0000000F0000002E00000008
:103170001001000043000000F8FFFFFF0040404046
:10318000404040404040414141414140404040403A
:1031900040404040404040404040404040050202E6
:1031A00002020202020202020202020202202020A5
:1031B0002020202020202002020202020202909001
:1031C00090909090101010101010101010101010FF
:1031D0001010101010101010020202020202888853
:1031E000888888880808080808080808080808085F
:1031F0000808080808080808020202024000000047
:1032000000000000000000000000000000000000BE
:1032100000000000000000000000000000000000AE
:10322000000000000000000000000000000000009E
:10323000000000000000000000000000000000008E
:10324000000000000000000000000000000000007E
:10325000000000000000000000000000000000006E
:10326000000000000000000000000000000000005E
:10327000000000000000000000000000000000004E
:10328000000000000000000000000000000000003E
:10329000000000000000000000000000000000002E
:1032A000000000000000000000000000000000001E
:1032B000000000000000000000000000000000000E
:1032C00000000000000000000000000000000000FE
:1032D00000000000000000000000000000000000EE
:1032E00000000000010203040102030406070809AC
:0432F00002040608C6
:040000050800027974
:00000001FF
